{
  "_format": "hh-sol-artifact-1",
  "contractName": "NFT",
  "sourceName": "contracts/NFT.sol",
  "abi": [
    {
      "inputs": [],
      "stateMutability": "nonpayable",
      "type": "constructor"
    },
    {
      "anonymous": false,
      "inputs": [
        {
          "indexed": true,
          "internalType": "address",
          "name": "account",
          "type": "address"
        },
        {
          "indexed": true,
          "internalType": "address",
          "name": "operator",
          "type": "address"
        },
        {
          "indexed": false,
          "internalType": "bool",
          "name": "approved",
          "type": "bool"
        }
      ],
      "name": "ApprovalForAll",
      "type": "event"
    },
    {
      "anonymous": false,
      "inputs": [
        {
          "indexed": true,
          "internalType": "address",
          "name": "previousOwner",
          "type": "address"
        },
        {
          "indexed": true,
          "internalType": "address",
          "name": "newOwner",
          "type": "address"
        }
      ],
      "name": "OwnershipTransferred",
      "type": "event"
    },
    {
      "anonymous": false,
      "inputs": [
        {
          "indexed": true,
          "internalType": "address",
          "name": "operator",
          "type": "address"
        },
        {
          "indexed": true,
          "internalType": "address",
          "name": "from",
          "type": "address"
        },
        {
          "indexed": true,
          "internalType": "address",
          "name": "to",
          "type": "address"
        },
        {
          "indexed": false,
          "internalType": "uint256[]",
          "name": "ids",
          "type": "uint256[]"
        },
        {
          "indexed": false,
          "internalType": "uint256[]",
          "name": "values",
          "type": "uint256[]"
        }
      ],
      "name": "TransferBatch",
      "type": "event"
    },
    {
      "anonymous": false,
      "inputs": [
        {
          "indexed": true,
          "internalType": "address",
          "name": "operator",
          "type": "address"
        },
        {
          "indexed": true,
          "internalType": "address",
          "name": "from",
          "type": "address"
        },
        {
          "indexed": true,
          "internalType": "address",
          "name": "to",
          "type": "address"
        },
        {
          "indexed": false,
          "internalType": "uint256",
          "name": "id",
          "type": "uint256"
        },
        {
          "indexed": false,
          "internalType": "uint256",
          "name": "value",
          "type": "uint256"
        }
      ],
      "name": "TransferSingle",
      "type": "event"
    },
    {
      "anonymous": false,
      "inputs": [
        {
          "indexed": false,
          "internalType": "string",
          "name": "value",
          "type": "string"
        },
        {
          "indexed": true,
          "internalType": "uint256",
          "name": "id",
          "type": "uint256"
        }
      ],
      "name": "URI",
      "type": "event"
    },
    {
      "inputs": [
        {
          "internalType": "address",
          "name": "account",
          "type": "address"
        },
        {
          "internalType": "uint256",
          "name": "id",
          "type": "uint256"
        }
      ],
      "name": "balanceOf",
      "outputs": [
        {
          "internalType": "uint256",
          "name": "",
          "type": "uint256"
        }
      ],
      "stateMutability": "view",
      "type": "function"
    },
    {
      "inputs": [
        {
          "internalType": "address[]",
          "name": "accounts",
          "type": "address[]"
        },
        {
          "internalType": "uint256[]",
          "name": "ids",
          "type": "uint256[]"
        }
      ],
      "name": "balanceOfBatch",
      "outputs": [
        {
          "internalType": "uint256[]",
          "name": "",
          "type": "uint256[]"
        }
      ],
      "stateMutability": "view",
      "type": "function"
    },
    {
      "inputs": [
        {
          "internalType": "address",
          "name": "account",
          "type": "address"
        },
        {
          "internalType": "address",
          "name": "operator",
          "type": "address"
        }
      ],
      "name": "isApprovedForAll",
      "outputs": [
        {
          "internalType": "bool",
          "name": "",
          "type": "bool"
        }
      ],
      "stateMutability": "view",
      "type": "function"
    },
    {
      "inputs": [
        {
          "internalType": "string",
          "name": "_uri",
          "type": "string"
        },
        {
          "internalType": "uint256",
          "name": "amount",
          "type": "uint256"
        }
      ],
      "name": "mint",
      "outputs": [
        {
          "internalType": "uint256",
          "name": "",
          "type": "uint256"
        }
      ],
      "stateMutability": "nonpayable",
      "type": "function"
    },
    {
      "inputs": [],
      "name": "name",
      "outputs": [
        {
          "internalType": "string",
          "name": "",
          "type": "string"
        }
      ],
      "stateMutability": "view",
      "type": "function"
    },
    {
      "inputs": [],
      "name": "owner",
      "outputs": [
        {
          "internalType": "address",
          "name": "",
          "type": "address"
        }
      ],
      "stateMutability": "view",
      "type": "function"
    },
    {
      "inputs": [],
      "name": "renounceOwnership",
      "outputs": [],
      "stateMutability": "nonpayable",
      "type": "function"
    },
    {
      "inputs": [
        {
          "internalType": "uint256",
          "name": "_tokenId",
          "type": "uint256"
        },
        {
          "internalType": "uint256",
          "name": "_salePrice",
          "type": "uint256"
        }
      ],
      "name": "royaltyInfo",
      "outputs": [
        {
          "internalType": "address",
          "name": "",
          "type": "address"
        },
        {
          "internalType": "uint256",
          "name": "",
          "type": "uint256"
        }
      ],
      "stateMutability": "view",
      "type": "function"
    },
    {
      "inputs": [
        {
          "internalType": "address",
          "name": "from",
          "type": "address"
        },
        {
          "internalType": "address",
          "name": "to",
          "type": "address"
        },
        {
          "internalType": "uint256[]",
          "name": "ids",
          "type": "uint256[]"
        },
        {
          "internalType": "uint256[]",
          "name": "amounts",
          "type": "uint256[]"
        },
        {
          "internalType": "bytes",
          "name": "data",
          "type": "bytes"
        }
      ],
      "name": "safeBatchTransferFrom",
      "outputs": [],
      "stateMutability": "nonpayable",
      "type": "function"
    },
    {
      "inputs": [
        {
          "internalType": "address",
          "name": "from",
          "type": "address"
        },
        {
          "internalType": "address",
          "name": "to",
          "type": "address"
        },
        {
          "internalType": "uint256",
          "name": "id",
          "type": "uint256"
        },
        {
          "internalType": "uint256",
          "name": "amount",
          "type": "uint256"
        },
        {
          "internalType": "bytes",
          "name": "data",
          "type": "bytes"
        }
      ],
      "name": "safeTransferFrom",
      "outputs": [],
      "stateMutability": "nonpayable",
      "type": "function"
    },
    {
      "inputs": [
        {
          "internalType": "address",
          "name": "operator",
          "type": "address"
        },
        {
          "internalType": "bool",
          "name": "approved",
          "type": "bool"
        }
      ],
      "name": "setApprovalForAll",
      "outputs": [],
      "stateMutability": "nonpayable",
      "type": "function"
    },
    {
      "inputs": [
        {
          "internalType": "bytes4",
          "name": "interfaceId",
          "type": "bytes4"
        }
      ],
      "name": "supportsInterface",
      "outputs": [
        {
          "internalType": "bool",
          "name": "",
          "type": "bool"
        }
      ],
      "stateMutability": "view",
      "type": "function"
    },
    {
      "inputs": [],
      "name": "symbol",
      "outputs": [
        {
          "internalType": "string",
          "name": "",
          "type": "string"
        }
      ],
      "stateMutability": "view",
      "type": "function"
    },
    {
      "inputs": [],
      "name": "tokenCount",
      "outputs": [
        {
          "internalType": "uint256",
          "name": "",
          "type": "uint256"
        }
      ],
      "stateMutability": "view",
      "type": "function"
    },
    {
      "inputs": [
        {
          "internalType": "address",
          "name": "newOwner",
          "type": "address"
        }
      ],
      "name": "transferOwnership",
      "outputs": [],
      "stateMutability": "nonpayable",
      "type": "function"
    },
    {
      "inputs": [
        {
          "internalType": "uint256",
          "name": "tokenId",
          "type": "uint256"
        }
      ],
      "name": "uri",
      "outputs": [
        {
          "internalType": "string",
          "name": "",
          "type": "string"
        }
      ],
      "stateMutability": "view",
      "type": "function"
    }
  ],
  "bytecode": "0x60806040526040518060400160405280600c81526020017f54616b656e204d61726b65740000000000000000000000000000000000000000815250600690816200004a919062000478565b506040518060400160405280600381526020017f54544e00000000000000000000000000000000000000000000000000000000008152506007908162000091919062000478565b506103e8600860006101000a8154816bffffffffffffffffffffffff02191690836bffffffffffffffffffffffff160217905550348015620000d257600080fd5b5060405180602001604052806000815250620000f4816200011b60201b60201c565b5062000115620001096200013060201b60201c565b6200013860201b60201c565b6200055f565b80600290816200012c919062000478565b5050565b600033905090565b6000600360009054906101000a900473ffffffffffffffffffffffffffffffffffffffff16905081600360006101000a81548173ffffffffffffffffffffffffffffffffffffffff021916908373ffffffffffffffffffffffffffffffffffffffff1602179055508173ffffffffffffffffffffffffffffffffffffffff168173ffffffffffffffffffffffffffffffffffffffff167f8be0079c531659141344cd1fd0a4f28419497f9722a3daafe3b4186f6b6457e060405160405180910390a35050565b600081519050919050565b7f4e487b7100000000000000000000000000000000000000000000000000000000600052604160045260246000fd5b7f4e487b7100000000000000000000000000000000000000000000000000000000600052602260045260246000fd5b600060028204905060018216806200028057607f821691505b60208210810362000296576200029562000238565b5b50919050565b60008190508160005260206000209050919050565b60006020601f8301049050919050565b600082821b905092915050565b600060088302620003007fffffffffffffffffffffffffffffffffffffffffffffffffffffffffffffffff82620002c1565b6200030c8683620002c1565b95508019841693508086168417925050509392505050565b6000819050919050565b6000819050919050565b600062000359620003536200034d8462000324565b6200032e565b62000324565b9050919050565b6000819050919050565b620003758362000338565b6200038d620003848262000360565b848454620002ce565b825550505050565b600090565b620003a462000395565b620003b18184846200036a565b505050565b5b81811015620003d957620003cd6000826200039a565b600181019050620003b7565b5050565b601f8211156200042857620003f2816200029c565b620003fd84620002b1565b810160208510156200040d578190505b620004256200041c85620002b1565b830182620003b6565b50505b505050565b600082821c905092915050565b60006200044d600019846008026200042d565b1980831691505092915050565b60006200046883836200043a565b9150826002028217905092915050565b6200048382620001fe565b67ffffffffffffffff8111156200049f576200049e62000209565b5b620004ab825462000267565b620004b8828285620003dd565b600060209050601f831160018114620004f05760008415620004db578287015190505b620004e785826200045a565b86555062000557565b601f19841662000500866200029c565b60005b828110156200052a5784890151825560018201915060208501945060208101905062000503565b868310156200054a578489015162000546601f8916826200043a565b8355505b6001600288020188555050505b505050505050565b6137a3806200056f6000396000f3fe608060405234801561001057600080fd5b50600436106100ff5760003560e01c8063715018a611610097578063a22cb46511610066578063a22cb465146102c3578063e985e9c5146102df578063f242432a1461030f578063f2fde38b1461032b576100ff565b8063715018a61461025f5780638da5cb5b1461026957806395d89b41146102875780639f181b5e146102a5576100ff565b80630e89341c116100d35780630e89341c146101b25780632a55205a146101e25780632eb2c2d6146102135780634e1273f41461022f576100ff565b8062fdd58e1461010457806301ffc9a714610134578063056b01ce1461016457806306fdde0314610194575b600080fd5b61011e60048036038101906101199190611f00565b610347565b60405161012b9190611f4f565b60405180910390f35b61014e60048036038101906101499190611fc2565b61040f565b60405161015b919061200a565b60405180910390f35b61017e6004803603810190610179919061216b565b610451565b60405161018b9190611f4f565b60405180910390f35b61019c6104c6565b6040516101a99190612246565b60405180910390f35b6101cc60048036038101906101c79190612268565b610554565b6040516101d99190612246565b60405180910390f35b6101fc60048036038101906101f79190612295565b6105f9565b60405161020a9291906122e4565b60405180910390f35b61022d60048036038101906102289190612476565b6107e3565b005b61024960048036038101906102449190612608565b610884565b604051610256919061273e565b60405180910390f35b61026761099d565b005b6102716109b1565b60405161027e9190612760565b60405180910390f35b61028f6109db565b60405161029c9190612246565b60405180910390f35b6102ad610a69565b6040516102ba9190611f4f565b60405180910390f35b6102dd60048036038101906102d891906127a7565b610a6f565b005b6102f960048036038101906102f491906127e7565b610a85565b604051610306919061200a565b60405180910390f35b61032960048036038101906103249190612827565b610b19565b005b610345600480360381019061034091906128be565b610bba565b005b60008073ffffffffffffffffffffffffffffffffffffffff168373ffffffffffffffffffffffffffffffffffffffff16036103b7576040517f08c379a00000000000000000000000000000000000000000000000000000000081526004016103ae9061295d565b60405180910390fd5b60008083815260200190815260200160002060008473ffffffffffffffffffffffffffffffffffffffff1673ffffffffffffffffffffffffffffffffffffffff16815260200190815260200160002054905092915050565b6000632a55205a60e01b827bffffffffffffffffffffffffffffffffffffffffffffffffffffffff1916148061044a575061044982610c3d565b5b9050919050565b600060096000815480929190610466906129ac565b9190505550610488336009548460405180602001604052806000815250610cb7565b61049460095484610e67565b6104bb60095433600860009054906101000a90046bffffffffffffffffffffffff16610e8c565b600954905092915050565b600680546104d390612a23565b80601f01602080910402602001604051908101604052809291908181526020018280546104ff90612a23565b801561054c5780601f106105215761010080835404028352916020019161054c565b820191906000526020600020905b81548152906001019060200180831161052f57829003601f168201915b505050505081565b6060600a6000838152602001908152602001600020805461057490612a23565b80601f01602080910402602001604051908101604052809291908181526020018280546105a090612a23565b80156105ed5780601f106105c2576101008083540402835291602001916105ed565b820191906000526020600020905b8154815290600101906020018083116105d057829003601f168201915b50505050509050919050565b6000806000600560008681526020019081526020016000206040518060400160405290816000820160009054906101000a900473ffffffffffffffffffffffffffffffffffffffff1673ffffffffffffffffffffffffffffffffffffffff1673ffffffffffffffffffffffffffffffffffffffff1681526020016000820160149054906101000a90046bffffffffffffffffffffffff166bffffffffffffffffffffffff166bffffffffffffffffffffffff16815250509050600073ffffffffffffffffffffffffffffffffffffffff16816000015173ffffffffffffffffffffffffffffffffffffffff160361078e5760046040518060400160405290816000820160009054906101000a900473ffffffffffffffffffffffffffffffffffffffff1673ffffffffffffffffffffffffffffffffffffffff1673ffffffffffffffffffffffffffffffffffffffff1681526020016000820160149054906101000a90046bffffffffffffffffffffffff166bffffffffffffffffffffffff166bffffffffffffffffffffffff168152505090505b6000610798611033565b6bffffffffffffffffffffffff1682602001516bffffffffffffffffffffffff16866107c49190612a54565b6107ce9190612ac5565b90508160000151819350935050509250929050565b6107eb61103d565b73ffffffffffffffffffffffffffffffffffffffff168573ffffffffffffffffffffffffffffffffffffffff16148061083157506108308561082b61103d565b610a85565b5b610870576040517f08c379a000000000000000000000000000000000000000000000000000000000815260040161086790612b68565b60405180910390fd5b61087d8585858585611045565b5050505050565b606081518351146108ca576040517f08c379a00000000000000000000000000000000000000000000000000000000081526004016108c190612bfa565b60405180910390fd5b6000835167ffffffffffffffff8111156108e7576108e6612040565b5b6040519080825280602002602001820160405280156109155781602001602082028036833780820191505090505b50905060005b84518110156109925761096285828151811061093a57610939612c1a565b5b602002602001015185838151811061095557610954612c1a565b5b6020026020010151610347565b82828151811061097557610974612c1a565b5b6020026020010181815250508061098b906129ac565b905061091b565b508091505092915050565b6109a5611366565b6109af60006113e4565b565b6000600360009054906101000a900473ffffffffffffffffffffffffffffffffffffffff16905090565b600780546109e890612a23565b80601f0160208091040260200160405190810160405280929190818152602001828054610a1490612a23565b8015610a615780601f10610a3657610100808354040283529160200191610a61565b820191906000526020600020905b815481529060010190602001808311610a4457829003601f168201915b505050505081565b60095481565b610a81610a7a61103d565b83836114aa565b5050565b6000600160008473ffffffffffffffffffffffffffffffffffffffff1673ffffffffffffffffffffffffffffffffffffffff16815260200190815260200160002060008373ffffffffffffffffffffffffffffffffffffffff1673ffffffffffffffffffffffffffffffffffffffff16815260200190815260200160002060009054906101000a900460ff16905092915050565b610b2161103d565b73ffffffffffffffffffffffffffffffffffffffff168573ffffffffffffffffffffffffffffffffffffffff161480610b675750610b6685610b6161103d565b610a85565b5b610ba6576040517f08c379a0000000000000000000000000000000000000000000000000000000008152600401610b9d90612b68565b60405180910390fd5b610bb38585858585611616565b5050505050565b610bc2611366565b600073ffffffffffffffffffffffffffffffffffffffff168173ffffffffffffffffffffffffffffffffffffffff1603610c31576040517f08c379a0000000000000000000000000000000000000000000000000000000008152600401610c2890612cbb565b60405180910390fd5b610c3a816113e4565b50565b60007f2a55205a000000000000000000000000000000000000000000000000000000007bffffffffffffffffffffffffffffffffffffffffffffffffffffffff1916827bffffffffffffffffffffffffffffffffffffffffffffffffffffffff19161480610cb05750610caf826118b1565b5b9050919050565b600073ffffffffffffffffffffffffffffffffffffffff168473ffffffffffffffffffffffffffffffffffffffff1603610d26576040517f08c379a0000000000000000000000000000000000000000000000000000000008152600401610d1d90612d4d565b60405180910390fd5b6000610d3061103d565b90506000610d3d85611993565b90506000610d4a85611993565b9050610d5b83600089858589611a0d565b8460008088815260200190815260200160002060008973ffffffffffffffffffffffffffffffffffffffff1673ffffffffffffffffffffffffffffffffffffffff1681526020019081526020016000206000828254610dba9190612d6d565b925050819055508673ffffffffffffffffffffffffffffffffffffffff16600073ffffffffffffffffffffffffffffffffffffffff168473ffffffffffffffffffffffffffffffffffffffff167fc3d58168c5ae7397731d063d5bbf3d657854427343f4c083240f7aacaa2d0f628989604051610e38929190612da1565b60405180910390a4610e4f83600089858589611a15565b610e5e83600089898989611a1d565b50505050505050565b80600a60008481526020019081526020016000209081610e879190612f76565b505050565b610e94611033565b6bffffffffffffffffffffffff16816bffffffffffffffffffffffff161115610ef2576040517f08c379a0000000000000000000000000000000000000000000000000000000008152600401610ee9906130ba565b60405180910390fd5b600073ffffffffffffffffffffffffffffffffffffffff168273ffffffffffffffffffffffffffffffffffffffff1603610f61576040517f08c379a0000000000000000000000000000000000000000000000000000000008152600401610f5890613126565b60405180910390fd5b60405180604001604052808373ffffffffffffffffffffffffffffffffffffffff168152602001826bffffffffffffffffffffffff168152506005600085815260200190815260200160002060008201518160000160006101000a81548173ffffffffffffffffffffffffffffffffffffffff021916908373ffffffffffffffffffffffffffffffffffffffff16021790555060208201518160000160146101000a8154816bffffffffffffffffffffffff02191690836bffffffffffffffffffffffff160217905550905050505050565b6000612710905090565b600033905090565b8151835114611089576040517f08c379a0000000000000000000000000000000000000000000000000000000008152600401611080906131b8565b60405180910390fd5b600073ffffffffffffffffffffffffffffffffffffffff168473ffffffffffffffffffffffffffffffffffffffff16036110f8576040517f08c379a00000000000000000000000000000000000000000000000000000000081526004016110ef9061324a565b60405180910390fd5b600061110261103d565b9050611112818787878787611a0d565b60005b84518110156112c357600085828151811061113357611132612c1a565b5b60200260200101519050600085838151811061115257611151612c1a565b5b60200260200101519050600080600084815260200190815260200160002060008b73ffffffffffffffffffffffffffffffffffffffff1673ffffffffffffffffffffffffffffffffffffffff168152602001908152602001600020549050818110156111f3576040517f08c379a00000000000000000000000000000000000000000000000000000000081526004016111ea906132dc565b60405180910390fd5b81810360008085815260200190815260200160002060008c73ffffffffffffffffffffffffffffffffffffffff1673ffffffffffffffffffffffffffffffffffffffff168152602001908152602001600020819055508160008085815260200190815260200160002060008b73ffffffffffffffffffffffffffffffffffffffff1673ffffffffffffffffffffffffffffffffffffffff16815260200190815260200160002060008282546112a89190612d6d565b92505081905550505050806112bc906129ac565b9050611115565b508473ffffffffffffffffffffffffffffffffffffffff168673ffffffffffffffffffffffffffffffffffffffff168273ffffffffffffffffffffffffffffffffffffffff167f4a39dc06d4c0dbc64b70af90fd698a233a518aa5d07e595d983b8c0526c8f7fb878760405161133a9291906132fc565b60405180910390a4611350818787878787611a15565b61135e818787878787611bf4565b505050505050565b61136e61103d565b73ffffffffffffffffffffffffffffffffffffffff1661138c6109b1565b73ffffffffffffffffffffffffffffffffffffffff16146113e2576040517f08c379a00000000000000000000000000000000000000000000000000000000081526004016113d99061337f565b60405180910390fd5b565b6000600360009054906101000a900473ffffffffffffffffffffffffffffffffffffffff16905081600360006101000a81548173ffffffffffffffffffffffffffffffffffffffff021916908373ffffffffffffffffffffffffffffffffffffffff1602179055508173ffffffffffffffffffffffffffffffffffffffff168173ffffffffffffffffffffffffffffffffffffffff167f8be0079c531659141344cd1fd0a4f28419497f9722a3daafe3b4186f6b6457e060405160405180910390a35050565b8173ffffffffffffffffffffffffffffffffffffffff168373ffffffffffffffffffffffffffffffffffffffff1603611518576040517f08c379a000000000000000000000000000000000000000000000000000000000815260040161150f90613411565b60405180910390fd5b80600160008573ffffffffffffffffffffffffffffffffffffffff1673ffffffffffffffffffffffffffffffffffffffff16815260200190815260200160002060008473ffffffffffffffffffffffffffffffffffffffff1673ffffffffffffffffffffffffffffffffffffffff16815260200190815260200160002060006101000a81548160ff0219169083151502179055508173ffffffffffffffffffffffffffffffffffffffff168373ffffffffffffffffffffffffffffffffffffffff167f17307eab39ab6107e8899845ad3d59bd9653f200f220920489ca2b5937696c3183604051611609919061200a565b60405180910390a3505050565b600073ffffffffffffffffffffffffffffffffffffffff168473ffffffffffffffffffffffffffffffffffffffff1603611685576040517f08c379a000000000000000000000000000000000000000000000000000000000815260040161167c9061324a565b60405180910390fd5b600061168f61103d565b9050600061169c85611993565b905060006116a985611993565b90506116b9838989858589611a0d565b600080600088815260200190815260200160002060008a73ffffffffffffffffffffffffffffffffffffffff1673ffffffffffffffffffffffffffffffffffffffff16815260200190815260200160002054905085811015611750576040517f08c379a0000000000000000000000000000000000000000000000000000000008152600401611747906132dc565b60405180910390fd5b85810360008089815260200190815260200160002060008b73ffffffffffffffffffffffffffffffffffffffff1673ffffffffffffffffffffffffffffffffffffffff168152602001908152602001600020819055508560008089815260200190815260200160002060008a73ffffffffffffffffffffffffffffffffffffffff1673ffffffffffffffffffffffffffffffffffffffff16815260200190815260200160002060008282546118059190612d6d565b925050819055508773ffffffffffffffffffffffffffffffffffffffff168973ffffffffffffffffffffffffffffffffffffffff168573ffffffffffffffffffffffffffffffffffffffff167fc3d58168c5ae7397731d063d5bbf3d657854427343f4c083240f7aacaa2d0f628a8a604051611882929190612da1565b60405180910390a4611898848a8a86868a611a15565b6118a6848a8a8a8a8a611a1d565b505050505050505050565b60007fd9b67a26000000000000000000000000000000000000000000000000000000007bffffffffffffffffffffffffffffffffffffffffffffffffffffffff1916827bffffffffffffffffffffffffffffffffffffffffffffffffffffffff1916148061197c57507f0e89341c000000000000000000000000000000000000000000000000000000007bffffffffffffffffffffffffffffffffffffffffffffffffffffffff1916827bffffffffffffffffffffffffffffffffffffffffffffffffffffffff1916145b8061198c575061198b82611dcb565b5b9050919050565b60606000600167ffffffffffffffff8111156119b2576119b1612040565b5b6040519080825280602002602001820160405280156119e05781602001602082028036833780820191505090505b50905082816000815181106119f8576119f7612c1a565b5b60200260200101818152505080915050919050565b505050505050565b505050505050565b611a3c8473ffffffffffffffffffffffffffffffffffffffff16611e35565b15611bec578373ffffffffffffffffffffffffffffffffffffffff1663f23a6e6187878686866040518663ffffffff1660e01b8152600401611a82959493929190613486565b6020604051808303816000875af1925050508015611abe57506040513d601f19601f82011682018060405250810190611abb91906134f5565b60015b611b6357611aca61352f565b806308c379a003611b265750611ade613551565b80611ae95750611b28565b806040517f08c379a0000000000000000000000000000000000000000000000000000000008152600401611b1d9190612246565b60405180910390fd5b505b6040517f08c379a0000000000000000000000000000000000000000000000000000000008152600401611b5a90613653565b60405180910390fd5b63f23a6e6160e01b7bffffffffffffffffffffffffffffffffffffffffffffffffffffffff1916817bffffffffffffffffffffffffffffffffffffffffffffffffffffffff191614611bea576040517f08c379a0000000000000000000000000000000000000000000000000000000008152600401611be1906136e5565b60405180910390fd5b505b505050505050565b611c138473ffffffffffffffffffffffffffffffffffffffff16611e35565b15611dc3578373ffffffffffffffffffffffffffffffffffffffff1663bc197c8187878686866040518663ffffffff1660e01b8152600401611c59959493929190613705565b6020604051808303816000875af1925050508015611c9557506040513d601f19601f82011682018060405250810190611c9291906134f5565b60015b611d3a57611ca161352f565b806308c379a003611cfd5750611cb5613551565b80611cc05750611cff565b806040517f08c379a0000000000000000000000000000000000000000000000000000000008152600401611cf49190612246565b60405180910390fd5b505b6040517f08c379a0000000000000000000000000000000000000000000000000000000008152600401611d3190613653565b60405180910390fd5b63bc197c8160e01b7bffffffffffffffffffffffffffffffffffffffffffffffffffffffff1916817bffffffffffffffffffffffffffffffffffffffffffffffffffffffff191614611dc1576040517f08c379a0000000000000000000000000000000000000000000000000000000008152600401611db8906136e5565b60405180910390fd5b505b505050505050565b60007f01ffc9a7000000000000000000000000000000000000000000000000000000007bffffffffffffffffffffffffffffffffffffffffffffffffffffffff1916827bffffffffffffffffffffffffffffffffffffffffffffffffffffffff1916149050919050565b6000808273ffffffffffffffffffffffffffffffffffffffff163b119050919050565b6000604051905090565b600080fd5b600080fd5b600073ffffffffffffffffffffffffffffffffffffffff82169050919050565b6000611e9782611e6c565b9050919050565b611ea781611e8c565b8114611eb257600080fd5b50565b600081359050611ec481611e9e565b92915050565b6000819050919050565b611edd81611eca565b8114611ee857600080fd5b50565b600081359050611efa81611ed4565b92915050565b60008060408385031215611f1757611f16611e62565b5b6000611f2585828601611eb5565b9250506020611f3685828601611eeb565b9150509250929050565b611f4981611eca565b82525050565b6000602082019050611f646000830184611f40565b92915050565b60007fffffffff0000000000000000000000000000000000000000000000000000000082169050919050565b611f9f81611f6a565b8114611faa57600080fd5b50565b600081359050611fbc81611f96565b92915050565b600060208284031215611fd857611fd7611e62565b5b6000611fe684828501611fad565b91505092915050565b60008115159050919050565b61200481611fef565b82525050565b600060208201905061201f6000830184611ffb565b92915050565b600080fd5b600080fd5b6000601f19601f8301169050919050565b7f4e487b7100000000000000000000000000000000000000000000000000000000600052604160045260246000fd5b6120788261202f565b810181811067ffffffffffffffff8211171561209757612096612040565b5b80604052505050565b60006120aa611e58565b90506120b6828261206f565b919050565b600067ffffffffffffffff8211156120d6576120d5612040565b5b6120df8261202f565b9050602081019050919050565b82818337600083830152505050565b600061210e612109846120bb565b6120a0565b90508281526020810184848401111561212a5761212961202a565b5b6121358482856120ec565b509392505050565b600082601f83011261215257612151612025565b5b81356121628482602086016120fb565b91505092915050565b6000806040838503121561218257612181611e62565b5b600083013567ffffffffffffffff8111156121a05761219f611e67565b5b6121ac8582860161213d565b92505060206121bd85828601611eeb565b9150509250929050565b600081519050919050565b600082825260208201905092915050565b60005b838110156122015780820151818401526020810190506121e6565b60008484015250505050565b6000612218826121c7565b61222281856121d2565b93506122328185602086016121e3565b61223b8161202f565b840191505092915050565b60006020820190508181036000830152612260818461220d565b905092915050565b60006020828403121561227e5761227d611e62565b5b600061228c84828501611eeb565b91505092915050565b600080604083850312156122ac576122ab611e62565b5b60006122ba85828601611eeb565b92505060206122cb85828601611eeb565b9150509250929050565b6122de81611e8c565b82525050565b60006040820190506122f960008301856122d5565b6123066020830184611f40565b9392505050565b600067ffffffffffffffff82111561232857612327612040565b5b602082029050602081019050919050565b600080fd5b600061235161234c8461230d565b6120a0565b9050808382526020820190506020840283018581111561237457612373612339565b5b835b8181101561239d57806123898882611eeb565b845260208401935050602081019050612376565b5050509392505050565b600082601f8301126123bc576123bb612025565b5b81356123cc84826020860161233e565b91505092915050565b600067ffffffffffffffff8211156123f0576123ef612040565b5b6123f98261202f565b9050602081019050919050565b6000612419612414846123d5565b6120a0565b9050828152602081018484840111156124355761243461202a565b5b6124408482856120ec565b509392505050565b600082601f83011261245d5761245c612025565b5b813561246d848260208601612406565b91505092915050565b600080600080600060a0868803121561249257612491611e62565b5b60006124a088828901611eb5565b95505060206124b188828901611eb5565b945050604086013567ffffffffffffffff8111156124d2576124d1611e67565b5b6124de888289016123a7565b935050606086013567ffffffffffffffff8111156124ff576124fe611e67565b5b61250b888289016123a7565b925050608086013567ffffffffffffffff81111561252c5761252b611e67565b5b61253888828901612448565b9150509295509295909350565b600067ffffffffffffffff8211156125605761255f612040565b5b602082029050602081019050919050565b600061258461257f84612545565b6120a0565b905080838252602082019050602084028301858111156125a7576125a6612339565b5b835b818110156125d057806125bc8882611eb5565b8452602084019350506020810190506125a9565b5050509392505050565b600082601f8301126125ef576125ee612025565b5b81356125ff848260208601612571565b91505092915050565b6000806040838503121561261f5761261e611e62565b5b600083013567ffffffffffffffff81111561263d5761263c611e67565b5b612649858286016125da565b925050602083013567ffffffffffffffff81111561266a57612669611e67565b5b612676858286016123a7565b9150509250929050565b600081519050919050565b600082825260208201905092915050565b6000819050602082019050919050565b6126b581611eca565b82525050565b60006126c783836126ac565b60208301905092915050565b6000602082019050919050565b60006126eb82612680565b6126f5818561268b565b93506127008361269c565b8060005b8381101561273157815161271888826126bb565b9750612723836126d3565b925050600181019050612704565b5085935050505092915050565b6000602082019050818103600083015261275881846126e0565b905092915050565b600060208201905061277560008301846122d5565b92915050565b61278481611fef565b811461278f57600080fd5b50565b6000813590506127a18161277b565b92915050565b600080604083850312156127be576127bd611e62565b5b60006127cc85828601611eb5565b92505060206127dd85828601612792565b9150509250929050565b600080604083850312156127fe576127fd611e62565b5b600061280c85828601611eb5565b925050602061281d85828601611eb5565b9150509250929050565b600080600080600060a0868803121561284357612842611e62565b5b600061285188828901611eb5565b955050602061286288828901611eb5565b945050604061287388828901611eeb565b935050606061288488828901611eeb565b925050608086013567ffffffffffffffff8111156128a5576128a4611e67565b5b6128b188828901612448565b9150509295509295909350565b6000602082840312156128d4576128d3611e62565b5b60006128e284828501611eb5565b91505092915050565b7f455243313135353a2061646472657373207a65726f206973206e6f742061207660008201527f616c6964206f776e657200000000000000000000000000000000000000000000602082015250565b6000612947602a836121d2565b9150612952826128eb565b604082019050919050565b600060208201905081810360008301526129768161293a565b9050919050565b7f4e487b7100000000000000000000000000000000000000000000000000000000600052601160045260246000fd5b60006129b782611eca565b91507fffffffffffffffffffffffffffffffffffffffffffffffffffffffffffffffff82036129e9576129e861297d565b5b600182019050919050565b7f4e487b7100000000000000000000000000000000000000000000000000000000600052602260045260246000fd5b60006002820490506001821680612a3b57607f821691505b602082108103612a4e57612a4d6129f4565b5b50919050565b6000612a5f82611eca565b9150612a6a83611eca565b9250828202612a7881611eca565b91508282048414831517612a8f57612a8e61297d565b5b5092915050565b7f4e487b7100000000000000000000000000000000000000000000000000000000600052601260045260246000fd5b6000612ad082611eca565b9150612adb83611eca565b925082612aeb57612aea612a96565b5b828204905092915050565b7f455243313135353a2063616c6c6572206973206e6f7420746f6b656e206f776e60008201527f6572206f7220617070726f766564000000000000000000000000000000000000602082015250565b6000612b52602e836121d2565b9150612b5d82612af6565b604082019050919050565b60006020820190508181036000830152612b8181612b45565b9050919050565b7f455243313135353a206163636f756e747320616e6420696473206c656e67746860008201527f206d69736d617463680000000000000000000000000000000000000000000000602082015250565b6000612be46029836121d2565b9150612bef82612b88565b604082019050919050565b60006020820190508181036000830152612c1381612bd7565b9050919050565b7f4e487b7100000000000000000000000000000000000000000000000000000000600052603260045260246000fd5b7f4f776e61626c653a206e6577206f776e657220697320746865207a65726f206160008201527f6464726573730000000000000000000000000000000000000000000000000000602082015250565b6000612ca56026836121d2565b9150612cb082612c49565b604082019050919050565b60006020820190508181036000830152612cd481612c98565b9050919050565b7f455243313135353a206d696e7420746f20746865207a65726f2061646472657360008201527f7300000000000000000000000000000000000000000000000000000000000000602082015250565b6000612d376021836121d2565b9150612d4282612cdb565b604082019050919050565b60006020820190508181036000830152612d6681612d2a565b9050919050565b6000612d7882611eca565b9150612d8383611eca565b9250828201905080821115612d9b57612d9a61297d565b5b92915050565b6000604082019050612db66000830185611f40565b612dc36020830184611f40565b9392505050565b60008190508160005260206000209050919050565b60006020601f8301049050919050565b600082821b905092915050565b600060088302612e2c7fffffffffffffffffffffffffffffffffffffffffffffffffffffffffffffffff82612def565b612e368683612def565b95508019841693508086168417925050509392505050565b6000819050919050565b6000612e73612e6e612e6984611eca565b612e4e565b611eca565b9050919050565b6000819050919050565b612e8d83612e58565b612ea1612e9982612e7a565b848454612dfc565b825550505050565b600090565b612eb6612ea9565b612ec1818484612e84565b505050565b5b81811015612ee557612eda600082612eae565b600181019050612ec7565b5050565b601f821115612f2a57612efb81612dca565b612f0484612ddf565b81016020851015612f13578190505b612f27612f1f85612ddf565b830182612ec6565b50505b505050565b600082821c905092915050565b6000612f4d60001984600802612f2f565b1980831691505092915050565b6000612f668383612f3c565b9150826002028217905092915050565b612f7f826121c7565b67ffffffffffffffff811115612f9857612f97612040565b5b612fa28254612a23565b612fad828285612ee9565b600060209050601f831160018114612fe05760008415612fce578287015190505b612fd88582612f5a565b865550613040565b601f198416612fee86612dca565b60005b8281101561301657848901518255600182019150602085019450602081019050612ff1565b86831015613033578489015161302f601f891682612f3c565b8355505b6001600288020188555050505b505050505050565b7f455243323938313a20726f79616c7479206665652077696c6c2065786365656460008201527f2073616c65507269636500000000000000000000000000000000000000000000602082015250565b60006130a4602a836121d2565b91506130af82613048565b604082019050919050565b600060208201905081810360008301526130d381613097565b9050919050565b7f455243323938313a20496e76616c696420706172616d65746572730000000000600082015250565b6000613110601b836121d2565b915061311b826130da565b602082019050919050565b6000602082019050818103600083015261313f81613103565b9050919050565b7f455243313135353a2069647320616e6420616d6f756e7473206c656e6774682060008201527f6d69736d61746368000000000000000000000000000000000000000000000000602082015250565b60006131a26028836121d2565b91506131ad82613146565b604082019050919050565b600060208201905081810360008301526131d181613195565b9050919050565b7f455243313135353a207472616e7366657220746f20746865207a65726f20616460008201527f6472657373000000000000000000000000000000000000000000000000000000602082015250565b60006132346025836121d2565b915061323f826131d8565b604082019050919050565b6000602082019050818103600083015261326381613227565b9050919050565b7f455243313135353a20696e73756666696369656e742062616c616e636520666f60008201527f72207472616e7366657200000000000000000000000000000000000000000000602082015250565b60006132c6602a836121d2565b91506132d18261326a565b604082019050919050565b600060208201905081810360008301526132f5816132b9565b9050919050565b6000604082019050818103600083015261331681856126e0565b9050818103602083015261332a81846126e0565b90509392505050565b7f4f776e61626c653a2063616c6c6572206973206e6f7420746865206f776e6572600082015250565b60006133696020836121d2565b915061337482613333565b602082019050919050565b600060208201905081810360008301526133988161335c565b9050919050565b7f455243313135353a2073657474696e6720617070726f76616c2073746174757360008201527f20666f722073656c660000000000000000000000000000000000000000000000602082015250565b60006133fb6029836121d2565b91506134068261339f565b604082019050919050565b6000602082019050818103600083015261342a816133ee565b9050919050565b600081519050919050565b600082825260208201905092915050565b600061345882613431565b613462818561343c565b93506134728185602086016121e3565b61347b8161202f565b840191505092915050565b600060a08201905061349b60008301886122d5565b6134a860208301876122d5565b6134b56040830186611f40565b6134c26060830185611f40565b81810360808301526134d4818461344d565b90509695505050505050565b6000815190506134ef81611f96565b92915050565b60006020828403121561350b5761350a611e62565b5b6000613519848285016134e0565b91505092915050565b60008160e01c9050919050565b600060033d111561354e5760046000803e61354b600051613522565b90505b90565b600060443d106135de57613563611e58565b60043d036004823e80513d602482011167ffffffffffffffff8211171561358b5750506135de565b808201805167ffffffffffffffff8111156135a957505050506135de565b80602083010160043d0385018111156135c65750505050506135de565b6135d58260200185018661206f565b82955050505050505b90565b7f455243313135353a207472616e7366657220746f206e6f6e2d4552433131353560008201527f526563656976657220696d706c656d656e746572000000000000000000000000602082015250565b600061363d6034836121d2565b9150613648826135e1565b604082019050919050565b6000602082019050818103600083015261366c81613630565b9050919050565b7f455243313135353a204552433131353552656365697665722072656a6563746560008201527f6420746f6b656e73000000000000000000000000000000000000000000000000602082015250565b60006136cf6028836121d2565b91506136da82613673565b604082019050919050565b600060208201905081810360008301526136fe816136c2565b9050919050565b600060a08201905061371a60008301886122d5565b61372760208301876122d5565b818103604083015261373981866126e0565b9050818103606083015261374d81856126e0565b90508181036080830152613761818461344d565b9050969550505050505056fea2646970667358221220fc8af7648d73691b27c4c9ce0b4d759eca80dd612ae5499c8ebfeaa45b2a977d64736f6c63430008110033",
  "linkReferences": {},
  "deployedLinkReferences": {}
}