{
  "_format": "hh-sol-artifact-1",
  "contractName": "Marketplace",
  "sourceName": "contracts/Marketplace.sol",
  "abi": [
    {
      "inputs": [
        {
          "internalType": "uint256",
          "name": "_feePercent",
          "type": "uint256"
        }
      ],
      "stateMutability": "nonpayable",
      "type": "constructor"
    },
    {
      "anonymous": false,
      "inputs": [
        {
          "indexed": true,
          "internalType": "address",
          "name": "creater",
          "type": "address"
        },
        {
          "indexed": false,
          "internalType": "uint256",
          "name": "auctionCounting",
          "type": "uint256"
        },
        {
          "indexed": true,
          "internalType": "address",
          "name": "nft",
          "type": "address"
        },
        {
          "indexed": false,
          "internalType": "uint256",
          "name": "tokenId",
          "type": "uint256"
        },
        {
          "indexed": false,
          "internalType": "uint256",
          "name": "pricePlusFee",
          "type": "uint256"
        },
        {
          "indexed": false,
          "internalType": "uint256",
          "name": "amount",
          "type": "uint256"
        }
      ],
      "name": "AuctionCreated",
      "type": "event"
    },
    {
      "anonymous": false,
      "inputs": [
        {
          "indexed": false,
          "internalType": "uint256",
          "name": "itemId",
          "type": "uint256"
        },
        {
          "indexed": true,
          "internalType": "address",
          "name": "nft",
          "type": "address"
        },
        {
          "indexed": false,
          "internalType": "uint256",
          "name": "tokenId",
          "type": "uint256"
        },
        {
          "indexed": false,
          "internalType": "uint256",
          "name": "pricePlusFee",
          "type": "uint256"
        },
        {
          "indexed": true,
          "internalType": "address",
          "name": "seller",
          "type": "address"
        },
        {
          "indexed": true,
          "internalType": "address",
          "name": "buyer",
          "type": "address"
        }
      ],
      "name": "Bought",
      "type": "event"
    },
    {
      "anonymous": false,
      "inputs": [
        {
          "indexed": false,
          "internalType": "uint256",
          "name": "itemId",
          "type": "uint256"
        },
        {
          "indexed": true,
          "internalType": "address",
          "name": "nft",
          "type": "address"
        },
        {
          "indexed": false,
          "internalType": "uint256",
          "name": "tokenId",
          "type": "uint256"
        },
        {
          "indexed": false,
          "internalType": "uint256",
          "name": "pricePlusFee",
          "type": "uint256"
        },
        {
          "indexed": true,
          "internalType": "address",
          "name": "seller",
          "type": "address"
        },
        {
          "indexed": false,
          "internalType": "uint256",
          "name": "amount",
          "type": "uint256"
        }
      ],
      "name": "Listed",
      "type": "event"
    },
    {
      "inputs": [],
      "name": "auctionCount",
      "outputs": [
        {
          "internalType": "uint256",
          "name": "",
          "type": "uint256"
        }
      ],
      "stateMutability": "view",
      "type": "function"
    },
    {
      "inputs": [
        {
          "internalType": "uint256",
          "name": "",
          "type": "uint256"
        }
      ],
      "name": "auctions",
      "outputs": [
        {
          "internalType": "uint256",
          "name": "auctionId",
          "type": "uint256"
        },
        {
          "internalType": "contract IERC1155",
          "name": "nft",
          "type": "address"
        },
        {
          "internalType": "uint256",
          "name": "tokenId",
          "type": "uint256"
        },
        {
          "internalType": "uint256",
          "name": "price",
          "type": "uint256"
        },
        {
          "internalType": "uint256",
          "name": "pricePlusFee",
          "type": "uint256"
        },
        {
          "internalType": "address payable",
          "name": "creater",
          "type": "address"
        },
        {
          "internalType": "uint256",
          "name": "amount",
          "type": "uint256"
        },
        {
          "internalType": "bool",
          "name": "sold",
          "type": "bool"
        },
        {
          "internalType": "uint256",
          "name": "startTime",
          "type": "uint256"
        },
        {
          "internalType": "uint256",
          "name": "endTime",
          "type": "uint256"
        }
      ],
      "stateMutability": "view",
      "type": "function"
    },
    {
      "inputs": [
        {
          "internalType": "uint256",
          "name": "",
          "type": "uint256"
        }
      ],
      "name": "bids",
      "outputs": [
        {
          "internalType": "uint256",
          "name": "highestBid",
          "type": "uint256"
        },
        {
          "internalType": "address",
          "name": "highestbidder",
          "type": "address"
        }
      ],
      "stateMutability": "view",
      "type": "function"
    },
    {
      "inputs": [
        {
          "internalType": "address",
          "name": "",
          "type": "address"
        }
      ],
      "name": "blockStatus",
      "outputs": [
        {
          "internalType": "bool",
          "name": "",
          "type": "bool"
        }
      ],
      "stateMutability": "view",
      "type": "function"
    },
    {
      "inputs": [
        {
          "internalType": "address",
          "name": "_user",
          "type": "address"
        }
      ],
      "name": "blockUser",
      "outputs": [],
      "stateMutability": "nonpayable",
      "type": "function"
    },
    {
      "inputs": [
        {
          "internalType": "uint256",
          "name": "_auctionId",
          "type": "uint256"
        }
      ],
      "name": "burnAuction",
      "outputs": [],
      "stateMutability": "nonpayable",
      "type": "function"
    },
    {
      "inputs": [
        {
          "internalType": "uint256",
          "name": "_itemId",
          "type": "uint256"
        }
      ],
      "name": "burnItem",
      "outputs": [],
      "stateMutability": "nonpayable",
      "type": "function"
    },
    {
      "inputs": [
        {
          "internalType": "uint256",
          "name": "_itemId",
          "type": "uint256"
        }
      ],
      "name": "cancelList",
      "outputs": [
        {
          "internalType": "bool",
          "name": "",
          "type": "bool"
        }
      ],
      "stateMutability": "payable",
      "type": "function"
    },
    {
      "inputs": [
        {
          "internalType": "uint256",
          "name": "_auctionCount",
          "type": "uint256"
        },
        {
          "internalType": "contract IERC1155",
          "name": "_nft",
          "type": "address"
        }
      ],
      "name": "claimAuction",
      "outputs": [],
      "stateMutability": "nonpayable",
      "type": "function"
    },
    {
      "inputs": [
        {
          "internalType": "contract IERC1155",
          "name": "_nft",
          "type": "address"
        },
        {
          "internalType": "uint256",
          "name": "_tokenId",
          "type": "uint256"
        },
        {
          "internalType": "uint256",
          "name": "_price",
          "type": "uint256"
        },
        {
          "internalType": "uint256",
          "name": "_amount",
          "type": "uint256"
        },
        {
          "internalType": "uint256",
          "name": "_duration",
          "type": "uint256"
        }
      ],
      "name": "createAuction",
      "outputs": [],
      "stateMutability": "nonpayable",
      "type": "function"
    },
    {
      "inputs": [],
      "name": "feePercent",
      "outputs": [
        {
          "internalType": "uint256",
          "name": "",
          "type": "uint256"
        }
      ],
      "stateMutability": "view",
      "type": "function"
    },
    {
      "inputs": [],
      "name": "itemCount",
      "outputs": [
        {
          "internalType": "uint256",
          "name": "",
          "type": "uint256"
        }
      ],
      "stateMutability": "view",
      "type": "function"
    },
    {
      "inputs": [
        {
          "internalType": "uint256",
          "name": "",
          "type": "uint256"
        }
      ],
      "name": "items",
      "outputs": [
        {
          "internalType": "uint256",
          "name": "itemId",
          "type": "uint256"
        },
        {
          "internalType": "contract IERC1155",
          "name": "nft",
          "type": "address"
        },
        {
          "internalType": "uint256",
          "name": "tokenId",
          "type": "uint256"
        },
        {
          "internalType": "uint256",
          "name": "price",
          "type": "uint256"
        },
        {
          "internalType": "uint256",
          "name": "pricePlusFee",
          "type": "uint256"
        },
        {
          "internalType": "address payable",
          "name": "seller",
          "type": "address"
        },
        {
          "internalType": "uint256",
          "name": "totalAmount",
          "type": "uint256"
        },
        {
          "internalType": "uint256",
          "name": "amount",
          "type": "uint256"
        },
        {
          "internalType": "bool",
          "name": "sold",
          "type": "bool"
        }
      ],
      "stateMutability": "view",
      "type": "function"
    },
    {
      "inputs": [
        {
          "internalType": "contract IERC1155",
          "name": "_nft",
          "type": "address"
        },
        {
          "internalType": "uint256",
          "name": "_tokenId",
          "type": "uint256"
        },
        {
          "internalType": "uint256",
          "name": "_price",
          "type": "uint256"
        },
        {
          "internalType": "uint256",
          "name": "_amount",
          "type": "uint256"
        }
      ],
      "name": "makeItem",
      "outputs": [],
      "stateMutability": "nonpayable",
      "type": "function"
    },
    {
      "inputs": [],
      "name": "minBidIncrement",
      "outputs": [
        {
          "internalType": "uint256",
          "name": "",
          "type": "uint256"
        }
      ],
      "stateMutability": "view",
      "type": "function"
    },
    {
      "inputs": [
        {
          "internalType": "address",
          "name": "",
          "type": "address"
        },
        {
          "internalType": "address",
          "name": "",
          "type": "address"
        },
        {
          "internalType": "uint256[]",
          "name": "",
          "type": "uint256[]"
        },
        {
          "internalType": "uint256[]",
          "name": "",
          "type": "uint256[]"
        },
        {
          "internalType": "bytes",
          "name": "",
          "type": "bytes"
        }
      ],
      "name": "onERC1155BatchReceived",
      "outputs": [
        {
          "internalType": "bytes4",
          "name": "",
          "type": "bytes4"
        }
      ],
      "stateMutability": "nonpayable",
      "type": "function"
    },
    {
      "inputs": [
        {
          "internalType": "address",
          "name": "",
          "type": "address"
        },
        {
          "internalType": "address",
          "name": "",
          "type": "address"
        },
        {
          "internalType": "uint256",
          "name": "",
          "type": "uint256"
        },
        {
          "internalType": "uint256",
          "name": "",
          "type": "uint256"
        },
        {
          "internalType": "bytes",
          "name": "",
          "type": "bytes"
        }
      ],
      "name": "onERC1155Received",
      "outputs": [
        {
          "internalType": "bytes4",
          "name": "",
          "type": "bytes4"
        }
      ],
      "stateMutability": "nonpayable",
      "type": "function"
    },
    {
      "inputs": [],
      "name": "owner",
      "outputs": [
        {
          "internalType": "address payable",
          "name": "",
          "type": "address"
        }
      ],
      "stateMutability": "view",
      "type": "function"
    },
    {
      "inputs": [
        {
          "internalType": "uint256",
          "name": "_auctionCount",
          "type": "uint256"
        }
      ],
      "name": "placeBid",
      "outputs": [],
      "stateMutability": "payable",
      "type": "function"
    },
    {
      "inputs": [
        {
          "internalType": "uint256",
          "name": "_itemId",
          "type": "uint256"
        },
        {
          "internalType": "uint256",
          "name": "_amount",
          "type": "uint256"
        },
        {
          "internalType": "address",
          "name": "_nft",
          "type": "address"
        }
      ],
      "name": "purchaseItem",
      "outputs": [],
      "stateMutability": "payable",
      "type": "function"
    },
    {
      "inputs": [],
      "name": "register",
      "outputs": [],
      "stateMutability": "payable",
      "type": "function"
    },
    {
      "inputs": [
        {
          "internalType": "address",
          "name": "",
          "type": "address"
        }
      ],
      "name": "registration",
      "outputs": [
        {
          "internalType": "bool",
          "name": "",
          "type": "bool"
        }
      ],
      "stateMutability": "view",
      "type": "function"
    },
    {
      "inputs": [],
      "name": "registrationFee",
      "outputs": [
        {
          "internalType": "uint256",
          "name": "",
          "type": "uint256"
        }
      ],
      "stateMutability": "view",
      "type": "function"
    },
    {
      "inputs": [
        {
          "internalType": "bytes4",
          "name": "interfaceId",
          "type": "bytes4"
        }
      ],
      "name": "supportsInterface",
      "outputs": [
        {
          "internalType": "bool",
          "name": "",
          "type": "bool"
        }
      ],
      "stateMutability": "view",
      "type": "function"
    },
    {
      "inputs": [
        {
          "internalType": "uint256",
          "name": "_updatedMarketFee",
          "type": "uint256"
        }
      ],
      "name": "updateFeePercent",
      "outputs": [],
      "stateMutability": "nonpayable",
      "type": "function"
    },
    {
      "inputs": [
        {
          "internalType": "uint256",
          "name": "_updatedMinBidInc",
          "type": "uint256"
        }
      ],
      "name": "updateMinBidIncrement",
      "outputs": [],
      "stateMutability": "nonpayable",
      "type": "function"
    },
    {
      "inputs": [
        {
          "internalType": "uint256",
          "name": "_updatedRegFee",
          "type": "uint256"
        }
      ],
      "name": "updateRegistrationFee",
      "outputs": [],
      "stateMutability": "nonpayable",
      "type": "function"
    }
  ],
  "bytecode": "0x60a060405266038d7ea4c6800060045566038d7ea4c680006005553480156200002757600080fd5b50604051620053103803806200531083398181016040528101906200004d91906200012f565b60016000819055503373ffffffffffffffffffffffffffffffffffffffff1660808173ffffffffffffffffffffffffffffffffffffffff1681525050806001819055506001600960003373ffffffffffffffffffffffffffffffffffffffff1673ffffffffffffffffffffffffffffffffffffffff16815260200190815260200160002060006101000a81548160ff0219169083151502179055505062000161565b600080fd5b6000819050919050565b6200010981620000f4565b81146200011557600080fd5b50565b6000815190506200012981620000fe565b92915050565b600060208284031215620001485762000147620000ef565b5b6000620001588482850162000118565b91505092915050565b608051615146620001ca600039600081816106fc0152818161092701528181610a5801528181610c2601528181610d5f015281816112c001528181611c4701528181611f7d015281816129f601528181612f1c015281816131f5015261344401526151466000f3fe60806040526004361061019c5760003560e01c80636bfb0d01116100ec578063bc197c811161008a578063c9c9d2d811610064578063c9c9d2d8146105ad578063d3899d54146105dd578063f05c5fed1461061a578063f23a6e61146106435761019c565b8063bc197c8114610502578063be5fe1d41461053f578063bfb231d2146105685761019c565b8063961c9ae4116100c6578063961c9ae4146104785780639979ef45146104a1578063af582c6b146104bd578063b8f5d26a146104e65761019c565b80636bfb0d01146103f75780637fd6f15c146104225780638da5cb5b1461044d5761019c565b8063335b115e11610159578063571a26a011610133578063571a26a014610336578063576cc0f71461037c5780635ecb7bdc146103a5578063696aae08146103ce5761019c565b8063335b115e146102a45780633da01325146102cf5780634423c5f1146102f85761019c565b806301ffc9a7146101a1578063083759e0146101de5780630840605a1461020757806314c44e09146102445780631aa3a0081461026f5780632ad7157314610279575b600080fd5b3480156101ad57600080fd5b506101c860048036038101906101c39190613641565b610680565b6040516101d59190613689565b60405180910390f35b3480156101ea57600080fd5b50610205600480360381019061020091906136da565b6106fa565b005b34801561021357600080fd5b5061022e60048036038101906102299190613765565b610792565b60405161023b9190613689565b60405180910390f35b34801561025057600080fd5b506102596107b2565b60405161026691906137a1565b60405180910390f35b6102776107b8565b005b34801561028557600080fd5b5061028e610a4a565b60405161029b91906137a1565b60405180910390f35b3480156102b057600080fd5b506102b9610a50565b6040516102c691906137a1565b60405180910390f35b3480156102db57600080fd5b506102f660048036038101906102f19190613765565b610a56565b005b34801561030457600080fd5b5061031f600480360381019061031a91906136da565b610b3f565b60405161032d9291906137cb565b60405180910390f35b34801561034257600080fd5b5061035d600480360381019061035891906136da565b610b83565b6040516103739a99989796959493929190613874565b60405180910390f35b34801561038857600080fd5b506103a3600480360381019061039e91906136da565b610c24565b005b3480156103b157600080fd5b506103cc60048036038101906103c791906136da565b610d5d565b005b3480156103da57600080fd5b506103f560048036038101906103f0919061394e565b610e9e565b005b34801561040357600080fd5b5061040c6112b2565b60405161041991906137a1565b60405180910390f35b34801561042e57600080fd5b506104376112b8565b60405161044491906137a1565b60405180910390f35b34801561045957600080fd5b506104626112be565b60405161046f91906139b5565b60405180910390f35b34801561048457600080fd5b5061049f600480360381019061049a91906139d0565b6112e2565b005b6104bb60048036038101906104b691906136da565b61173b565b005b3480156104c957600080fd5b506104e460048036038101906104df91906136da565b611c45565b005b61050060048036038101906104fb9190613a4b565b611cdd565b005b34801561050e57600080fd5b5061052960048036038101906105249190613cac565b6127fd565b6040516105369190613d8a565b60405180910390f35b34801561054b57600080fd5b5061056660048036038101906105619190613da5565b612812565b005b34801561057457600080fd5b5061058f600480360381019061058a91906136da565b612cb3565b6040516105a499989796959493929190613de5565b60405180910390f35b6105c760048036038101906105c291906136da565b612d4e565b6040516105d49190613689565b60405180910390f35b3480156105e957600080fd5b5061060460048036038101906105ff9190613765565b613422565b6040516106119190613689565b60405180910390f35b34801561062657600080fd5b50610641600480360381019061063c91906136da565b613442565b005b34801561064f57600080fd5b5061066a60048036038101906106659190613e72565b6134da565b6040516106779190613d8a565b60405180910390f35b60007f4e2312e0000000000000000000000000000000000000000000000000000000007bffffffffffffffffffffffffffffffffffffffffffffffffffffffff1916827bffffffffffffffffffffffffffffffffffffffffffffffffffffffff191614806106f357506106f2826134ef565b5b9050919050565b7f000000000000000000000000000000000000000000000000000000000000000073ffffffffffffffffffffffffffffffffffffffff163373ffffffffffffffffffffffffffffffffffffffff1614610788576040517f08c379a000000000000000000000000000000000000000000000000000000000815260040161077f90613f8c565b60405180910390fd5b8060048190555050565b60096020528060005260406000206000915054906101000a900460ff1681565b60055481565b60001515600a60003373ffffffffffffffffffffffffffffffffffffffff1673ffffffffffffffffffffffffffffffffffffffff16815260200190815260200160002060009054906101000a900460ff1615151461084b576040517f08c379a000000000000000000000000000000000000000000000000000000000815260040161084290613ff8565b60405180910390fd5b600554341015610890576040517f08c379a000000000000000000000000000000000000000000000000000000000815260040161088790614064565b60405180910390fd5b60001515600960003373ffffffffffffffffffffffffffffffffffffffff1673ffffffffffffffffffffffffffffffffffffffff16815260200190815260200160002060009054906101000a900460ff16151514610923576040517f08c379a000000000000000000000000000000000000000000000000000000000815260040161091a906140d0565b60405180910390fd5b60007f000000000000000000000000000000000000000000000000000000000000000073ffffffffffffffffffffffffffffffffffffffff163460405161096990614121565b60006040518083038185875af1925050503d80600081146109a6576040519150601f19603f3d011682016040523d82523d6000602084013e6109ab565b606091505b50509050806109ef576040517f08c379a00000000000000000000000000000000000000000000000000000000081526004016109e690614182565b60405180910390fd5b6001600960003373ffffffffffffffffffffffffffffffffffffffff1673ffffffffffffffffffffffffffffffffffffffff16815260200190815260200160002060006101000a81548160ff02191690831515021790555050565b60035481565b60045481565b7f000000000000000000000000000000000000000000000000000000000000000073ffffffffffffffffffffffffffffffffffffffff163373ffffffffffffffffffffffffffffffffffffffff1614610ae4576040517f08c379a0000000000000000000000000000000000000000000000000000000008152600401610adb90613f8c565b60405180910390fd5b6001600a60008373ffffffffffffffffffffffffffffffffffffffff1673ffffffffffffffffffffffffffffffffffffffff16815260200190815260200160002060006101000a81548160ff02191690831515021790555050565b60086020528060005260406000206000915090508060000154908060010160009054906101000a900473ffffffffffffffffffffffffffffffffffffffff16905082565b60076020528060005260406000206000915090508060000154908060010160009054906101000a900473ffffffffffffffffffffffffffffffffffffffff16908060020154908060030154908060040154908060050160009054906101000a900473ffffffffffffffffffffffffffffffffffffffff16908060060154908060070160009054906101000a900460ff1690806008015490806009015490508a565b7f000000000000000000000000000000000000000000000000000000000000000073ffffffffffffffffffffffffffffffffffffffff163373ffffffffffffffffffffffffffffffffffffffff1614610cb2576040517f08c379a0000000000000000000000000000000000000000000000000000000008152600401610ca990613f8c565b60405180910390fd5b600660008281526020019081526020016000206000808201600090556001820160006101000a81549073ffffffffffffffffffffffffffffffffffffffff02191690556002820160009055600382016000905560048201600090556005820160006101000a81549073ffffffffffffffffffffffffffffffffffffffff0219169055600682016000905560078201600090556008820160006101000a81549060ff0219169055505050565b7f000000000000000000000000000000000000000000000000000000000000000073ffffffffffffffffffffffffffffffffffffffff163373ffffffffffffffffffffffffffffffffffffffff1614610deb576040517f08c379a0000000000000000000000000000000000000000000000000000000008152600401610de290613f8c565b60405180910390fd5b600760008281526020019081526020016000206000808201600090556001820160006101000a81549073ffffffffffffffffffffffffffffffffffffffff02191690556002820160009055600382016000905560048201600090556005820160006101000a81549073ffffffffffffffffffffffffffffffffffffffff021916905560068201600090556007820160006101000a81549060ff021916905560088201600090556009820160009055505050565b610ea6613559565b60011515600960003373ffffffffffffffffffffffffffffffffffffffff1673ffffffffffffffffffffffffffffffffffffffff16815260200190815260200160002060009054906101000a900460ff16151514610f39576040517f08c379a0000000000000000000000000000000000000000000000000000000008152600401610f30906141ee565b60405180910390fd5b60001515600a60003373ffffffffffffffffffffffffffffffffffffffff1673ffffffffffffffffffffffffffffffffffffffff16815260200190815260200160002060009054906101000a900460ff16151514610fcc576040517f08c379a0000000000000000000000000000000000000000000000000000000008152600401610fc390613ff8565b60405180910390fd5b6000821161100f576040517f08c379a00000000000000000000000000000000000000000000000000000000081526004016110069061425a565b60405180910390fd5b60026000815480929190611022906142a9565b91905055508373ffffffffffffffffffffffffffffffffffffffff1663f242432a333086856040518563ffffffff1660e01b81526004016110669493929190614325565b600060405180830381600087803b15801561108057600080fd5b505af1158015611094573d6000803e3d6000fd5b505050506000606460015460646110ab919061437d565b846110b691906143b1565b6110c09190614422565b905060405180610120016040528060025481526020018673ffffffffffffffffffffffffffffffffffffffff1681526020018581526020018481526020018281526020013373ffffffffffffffffffffffffffffffffffffffff168152602001838152602001838152602001600015158152506006600060025481526020019081526020016000206000820151816000015560208201518160010160006101000a81548173ffffffffffffffffffffffffffffffffffffffff021916908373ffffffffffffffffffffffffffffffffffffffff16021790555060408201518160020155606082015181600301556080820151816004015560a08201518160050160006101000a81548173ffffffffffffffffffffffffffffffffffffffff021916908373ffffffffffffffffffffffffffffffffffffffff16021790555060c0820151816006015560e082015181600701556101008201518160080160006101000a81548160ff0219169083151502179055509050503373ffffffffffffffffffffffffffffffffffffffff168573ffffffffffffffffffffffffffffffffffffffff167fa85b67b57aac0d79fa22a23ea90bb48ae0f4c0b9c3270995811fe3f3b520c73260025487878760405161129b9493929190614453565b60405180910390a3506112ac6135a8565b50505050565b60025481565b60015481565b7f000000000000000000000000000000000000000000000000000000000000000081565b6112ea613559565b60011515600960003373ffffffffffffffffffffffffffffffffffffffff1673ffffffffffffffffffffffffffffffffffffffff16815260200190815260200160002060009054906101000a900460ff1615151461137d576040517f08c379a0000000000000000000000000000000000000000000000000000000008152600401611374906141ee565b60405180910390fd5b60001515600a60003373ffffffffffffffffffffffffffffffffffffffff1673ffffffffffffffffffffffffffffffffffffffff16815260200190815260200160002060009054906101000a900460ff16151514611410576040517f08c379a000000000000000000000000000000000000000000000000000000000815260040161140790613ff8565b60405180910390fd5b60008311611453576040517f08c379a000000000000000000000000000000000000000000000000000000000815260040161144a9061425a565b60405180910390fd5b60036000815480929190611466906142a9565b91905055508473ffffffffffffffffffffffffffffffffffffffff1663f242432a333087866040518563ffffffff1660e01b81526004016114aa9493929190614325565b600060405180830381600087803b1580156114c457600080fd5b505af11580156114d8573d6000803e3d6000fd5b50505050600082606460015460646114f0919061437d565b866114fb91906143b1565b6115059190614422565b61150f91906143b1565b905060405180610140016040528060035481526020018773ffffffffffffffffffffffffffffffffffffffff1681526020018681526020018581526020018281526020013373ffffffffffffffffffffffffffffffffffffffff1681526020018481526020016000151581526020014281526020018342611590919061437d565b8152506007600060035481526020019081526020016000206000820151816000015560208201518160010160006101000a81548173ffffffffffffffffffffffffffffffffffffffff021916908373ffffffffffffffffffffffffffffffffffffffff16021790555060408201518160020155606082015181600301556080820151816004015560a08201518160050160006101000a81548173ffffffffffffffffffffffffffffffffffffffff021916908373ffffffffffffffffffffffffffffffffffffffff16021790555060c0820151816006015560e08201518160070160006101000a81548160ff0219169083151502179055506101008201518160080155610120820151816009015590505080600860006003548152602001908152602001600020600001819055508573ffffffffffffffffffffffffffffffffffffffff163373ffffffffffffffffffffffffffffffffffffffff167fecde1ffd2965d959f69fb469e60403b746a142d4ce09ca900a52f143855db7fa6003548888886040516117239493929190614453565b60405180910390a3506117346135a8565b5050505050565b611743613559565b60001515600a60003373ffffffffffffffffffffffffffffffffffffffff1673ffffffffffffffffffffffffffffffffffffffff16815260200190815260200160002060009054906101000a900460ff161515146117d6576040517f08c379a00000000000000000000000000000000000000000000000000000000081526004016117cd90613ff8565b60405180910390fd5b6007600082815260200190815260200160002060050160009054906101000a900473ffffffffffffffffffffffffffffffffffffffff1673ffffffffffffffffffffffffffffffffffffffff163373ffffffffffffffffffffffffffffffffffffffff160361187a576040517f08c379a0000000000000000000000000000000000000000000000000000000008152600401611871906144e4565b60405180910390fd5b600454600860008381526020019081526020016000206000015461189e919061437d565b3410156118e0576040517f08c379a00000000000000000000000000000000000000000000000000000000081526004016118d790614550565b60405180910390fd5b6004546007600083815260200190815260200160002060040154611904919061437d565b341015611946576040517f08c379a000000000000000000000000000000000000000000000000000000000815260040161193d906145bc565b60405180910390fd5b4260076000838152602001908152602001600020600801541061199e576040517f08c379a000000000000000000000000000000000000000000000000000000000815260040161199590614628565b60405180910390fd5b426007600083815260200190815260200160002060090154116119f6576040517f08c379a00000000000000000000000000000000000000000000000000000000081526004016119ed90614694565b60405180910390fd5b600073ffffffffffffffffffffffffffffffffffffffff166008600083815260200190815260200160002060010160009054906101000a900473ffffffffffffffffffffffffffffffffffffffff1673ffffffffffffffffffffffffffffffffffffffff1614611bca5760006008600083815260200190815260200160002060010160009054906101000a900473ffffffffffffffffffffffffffffffffffffffff1673ffffffffffffffffffffffffffffffffffffffff166008600084815260200190815260200160002060000154604051611ad290614121565b60006040518083038185875af1925050503d8060008114611b0f576040519150601f19603f3d011682016040523d82523d6000602084013e611b14565b606091505b5050905080611b58576040517f08c379a0000000000000000000000000000000000000000000000000000000008152600401611b4f90614700565b60405180910390fd5b336008600084815260200190815260200160002060010160006101000a81548173ffffffffffffffffffffffffffffffffffffffff021916908373ffffffffffffffffffffffffffffffffffffffff160217905550346008600084815260200190815260200160002060000181905550505b336008600083815260200190815260200160002060010160006101000a81548173ffffffffffffffffffffffffffffffffffffffff021916908373ffffffffffffffffffffffffffffffffffffffff160217905550346008600083815260200190815260200160002060000181905550611c426135a8565b50565b7f000000000000000000000000000000000000000000000000000000000000000073ffffffffffffffffffffffffffffffffffffffff163373ffffffffffffffffffffffffffffffffffffffff1614611cd3576040517f08c379a0000000000000000000000000000000000000000000000000000000008152600401611cca90613f8c565b60405180910390fd5b8060058190555050565b611ce5613559565b60001515600a60003373ffffffffffffffffffffffffffffffffffffffff1673ffffffffffffffffffffffffffffffffffffffff16815260200190815260200160002060009054906101000a900460ff16151514611d78576040517f08c379a0000000000000000000000000000000000000000000000000000000008152600401611d6f90613ff8565b60405180910390fd5b600082905060006006600086815260200190815260200160002090506000848260040154611da691906143b1565b905080341015611deb576040517f08c379a0000000000000000000000000000000000000000000000000000000008152600401611de290614792565b60405180910390fd5b600086118015611dfd57506002548611155b611e3c576040517f08c379a0000000000000000000000000000000000000000000000000000000008152600401611e33906147fe565b60405180910390fd5b6000826007015411611e83576040517f08c379a0000000000000000000000000000000000000000000000000000000008152600401611e7a9061486a565b60405180910390fd5b8482600701541015611eca576040517f08c379a0000000000000000000000000000000000000000000000000000000008152600401611ec1906148d6565b60405180910390fd5b3373ffffffffffffffffffffffffffffffffffffffff168260050160009054906101000a900473ffffffffffffffffffffffffffffffffffffffff1673ffffffffffffffffffffffffffffffffffffffff1603611f5c576040517f08c379a0000000000000000000000000000000000000000000000000000000008152600401611f5390614942565b60405180910390fd5b6000611f67826135b2565b905060008183611f779190614962565b905060007f000000000000000000000000000000000000000000000000000000000000000073ffffffffffffffffffffffffffffffffffffffff1683604051611fbf90614121565b60006040518083038185875af1925050503d8060008114611ffc576040519150601f19603f3d011682016040523d82523d6000602084013e612001565b606091505b5050905080612045576040517f08c379a000000000000000000000000000000000000000000000000000000000815260040161203c906149e2565b60405180910390fd5b8673ffffffffffffffffffffffffffffffffffffffff166301ffc9a7632a55205a6040518263ffffffff1660e01b81526004016120829190614a4a565b602060405180830381865afa15801561209f573d6000803e3d6000fd5b505050506040513d601f19601f820116820180604052508101906120c39190614a91565b1561271a576000808873ffffffffffffffffffffffffffffffffffffffff16632a55205a8860020154866040518363ffffffff1660e01b815260040161210a929190614abe565b6040805180830381865afa158015612126573d6000803e3d6000fd5b505050506040513d601f19601f8201168201806040525081019061214a9190614b11565b915091508660050160009054906101000a900473ffffffffffffffffffffffffffffffffffffffff1673ffffffffffffffffffffffffffffffffffffffff168273ffffffffffffffffffffffffffffffffffffffff16146124bf5760008273ffffffffffffffffffffffffffffffffffffffff16826040516121cb90614121565b60006040518083038185875af1925050503d8060008114612208576040519150601f19603f3d011682016040523d82523d6000602084013e61220d565b606091505b5050905080612251576040517f08c379a000000000000000000000000000000000000000000000000000000000815260040161224890614b9d565b60405180910390fd5b6000828661225f9190614962565b905060008960050160009054906101000a900473ffffffffffffffffffffffffffffffffffffffff1673ffffffffffffffffffffffffffffffffffffffff16826040516122ab90614121565b60006040518083038185875af1925050503d80600081146122e8576040519150601f19603f3d011682016040523d82523d6000602084013e6122ed565b606091505b5050905080612331576040517f08c379a000000000000000000000000000000000000000000000000000000000815260040161232890614c2f565b60405180910390fd5b8c8a60070160008282546123459190614962565b925050819055508960010160009054906101000a900473ffffffffffffffffffffffffffffffffffffffff1673ffffffffffffffffffffffffffffffffffffffff1663f242432a30338d600201548f6040518563ffffffff1660e01b81526004016123b39493929190614325565b600060405180830381600087803b1580156123cd57600080fd5b505af11580156123e1573d6000803e3d6000fd5b5050505060008a60070154036124b75760018a60080160006101000a81548160ff021916908315150217905550600660008f81526020019081526020016000206000808201600090556001820160006101000a81549073ffffffffffffffffffffffffffffffffffffffff02191690556002820160009055600382016000905560048201600090556005820160006101000a81549073ffffffffffffffffffffffffffffffffffffffff0219169055600682016000905560078201600090556008820160006101000a81549060ff021916905550505b505050612717565b60008760050160009054906101000a900473ffffffffffffffffffffffffffffffffffffffff1673ffffffffffffffffffffffffffffffffffffffff168560405161250990614121565b60006040518083038185875af1925050503d8060008114612546576040519150601f19603f3d011682016040523d82523d6000602084013e61254b565b606091505b505090508061258f576040517f08c379a000000000000000000000000000000000000000000000000000000000815260040161258690614182565b60405180910390fd5b8a8860070160008282546125a39190614962565b925050819055508760010160009054906101000a900473ffffffffffffffffffffffffffffffffffffffff1673ffffffffffffffffffffffffffffffffffffffff1663f242432a30338b600201548d6040518563ffffffff1660e01b81526004016126119493929190614325565b600060405180830381600087803b15801561262b57600080fd5b505af115801561263f573d6000803e3d6000fd5b5050505060008860070154036127155760018860080160006101000a81548160ff021916908315150217905550600660008d81526020019081526020016000206000808201600090556001820160006101000a81549073ffffffffffffffffffffffffffffffffffffffff02191690556002820160009055600382016000905560048201600090556005820160006101000a81549073ffffffffffffffffffffffffffffffffffffffff0219169055600682016000905560078201600090556008820160006101000a81549060ff021916905550505b505b50505b3373ffffffffffffffffffffffffffffffffffffffff168560050160009054906101000a900473ffffffffffffffffffffffffffffffffffffffff1673ffffffffffffffffffffffffffffffffffffffff168660010160009054906101000a900473ffffffffffffffffffffffffffffffffffffffff1673ffffffffffffffffffffffffffffffffffffffff167f8b4c9c8a607d67b321582dd8461041b1dc2ceeca70c8b7f37f8e02095cf2e76d8c89600201548a600301546040516127e293929190614c4f565b60405180910390a45050505050506127f86135a8565b505050565b600063bc197c8160e01b905095945050505050565b61281a613559565b60001515600a60003373ffffffffffffffffffffffffffffffffffffffff1673ffffffffffffffffffffffffffffffffffffffff16815260200190815260200160002060009054906101000a900460ff161515146128ad576040517f08c379a00000000000000000000000000000000000000000000000000000000081526004016128a490613ff8565b60405180910390fd5b42600760008481526020019081526020016000206009015410612905576040517f08c379a00000000000000000000000000000000000000000000000000000000081526004016128fc90614cd2565b60405180910390fd5b3373ffffffffffffffffffffffffffffffffffffffff166008600084815260200190815260200160002060010160009054906101000a900473ffffffffffffffffffffffffffffffffffffffff1673ffffffffffffffffffffffffffffffffffffffff16146129a9576040517f08c379a00000000000000000000000000000000000000000000000000000000081526004016129a090614d64565b60405180910390fd5b60006008600084815260200190815260200160002060000154905060006001546064836129d69190614422565b6129e091906143b1565b9050600081836129f09190614962565b905060007f000000000000000000000000000000000000000000000000000000000000000073ffffffffffffffffffffffffffffffffffffffff1683604051612a3890614121565b60006040518083038185875af1925050503d8060008114612a75576040519150601f19603f3d011682016040523d82523d6000602084013e612a7a565b606091505b5050905080612abe576040517f08c379a0000000000000000000000000000000000000000000000000000000008152600401612ab590614df6565b60405180910390fd5b60006007600088815260200190815260200160002060050160009054906101000a900473ffffffffffffffffffffffffffffffffffffffff1673ffffffffffffffffffffffffffffffffffffffff1683604051612b1a90614121565b60006040518083038185875af1925050503d8060008114612b57576040519150601f19603f3d011682016040523d82523d6000602084013e612b5c565b606091505b5050905080612ba0576040517f08c379a0000000000000000000000000000000000000000000000000000000008152600401612b9790614e62565b60405180910390fd5b8573ffffffffffffffffffffffffffffffffffffffff1663f242432a30600860008b815260200190815260200160002060010160009054906101000a900473ffffffffffffffffffffffffffffffffffffffff16600760008c815260200190815260200160002060020154600760008d8152602001908152602001600020600601546040518563ffffffff1660e01b8152600401612c419493929190614325565b600060405180830381600087803b158015612c5b57600080fd5b505af1158015612c6f573d6000803e3d6000fd5b5050505060016007600089815260200190815260200160002060070160006101000a81548160ff0219169083151502179055505050505050612caf6135a8565b5050565b60066020528060005260406000206000915090508060000154908060010160009054906101000a900473ffffffffffffffffffffffffffffffffffffffff16908060020154908060030154908060040154908060050160009054906101000a900473ffffffffffffffffffffffffffffffffffffffff16908060060154908060070154908060080160009054906101000a900460ff16905089565b6000612d58613559565b60001515600a60003373ffffffffffffffffffffffffffffffffffffffff1673ffffffffffffffffffffffffffffffffffffffff16815260200190815260200160002060009054906101000a900460ff16151514612deb576040517f08c379a0000000000000000000000000000000000000000000000000000000008152600401612de290613ff8565b60405180910390fd5b60006006600084815260200190815260200160002060405180610120016040529081600082015481526020016001820160009054906101000a900473ffffffffffffffffffffffffffffffffffffffff1673ffffffffffffffffffffffffffffffffffffffff1673ffffffffffffffffffffffffffffffffffffffff1681526020016002820154815260200160038201548152602001600482015481526020016005820160009054906101000a900473ffffffffffffffffffffffffffffffffffffffff1673ffffffffffffffffffffffffffffffffffffffff1673ffffffffffffffffffffffffffffffffffffffff16815260200160068201548152602001600782015481526020016008820160009054906101000a900460ff161515151581525050905060008160e0015190507f000000000000000000000000000000000000000000000000000000000000000073ffffffffffffffffffffffffffffffffffffffff163373ffffffffffffffffffffffffffffffffffffffff160361313a578160a0015173ffffffffffffffffffffffffffffffffffffffff163373ffffffffffffffffffffffffffffffffffffffff1614612fdf576040517f08c379a0000000000000000000000000000000000000000000000000000000008152600401612fd690614ef4565b60405180910390fd5b816020015173ffffffffffffffffffffffffffffffffffffffff1663f242432a30338560400151856040518563ffffffff1660e01b81526004016130269493929190614325565b600060405180830381600087803b15801561304057600080fd5b505af1158015613054573d6000803e3d6000fd5b5050505060016006600086815260200190815260200160002060080160006101000a81548160ff021916908315150217905550600660008581526020019081526020016000206000808201600090556001820160006101000a81549073ffffffffffffffffffffffffffffffffffffffff02191690556002820160009055600382016000905560048201600090556005820160006101000a81549073ffffffffffffffffffffffffffffffffffffffff0219169055600682016000905560078201600090556008820160006101000a81549060ff02191690555050600192505050613415565b60055434101561317f576040517f08c379a000000000000000000000000000000000000000000000000000000000815260040161317690614f86565b60405180910390fd5b8160a0015173ffffffffffffffffffffffffffffffffffffffff163373ffffffffffffffffffffffffffffffffffffffff16146131f1576040517f08c379a00000000000000000000000000000000000000000000000000000000081526004016131e890614ff2565b60405180910390fd5b60007f000000000000000000000000000000000000000000000000000000000000000073ffffffffffffffffffffffffffffffffffffffff163460405161323790614121565b60006040518083038185875af1925050503d8060008114613274576040519150601f19603f3d011682016040523d82523d6000602084013e613279565b606091505b50509050806132bd576040517f08c379a00000000000000000000000000000000000000000000000000000000081526004016132b490615084565b60405180910390fd5b826020015173ffffffffffffffffffffffffffffffffffffffff1663f242432a30338660400151866040518563ffffffff1660e01b81526004016133049493929190614325565b600060405180830381600087803b15801561331e57600080fd5b505af1158015613332573d6000803e3d6000fd5b5050505060016006600087815260200190815260200160002060080160006101000a81548160ff021916908315150217905550600660008681526020019081526020016000206000808201600090556001820160006101000a81549073ffffffffffffffffffffffffffffffffffffffff02191690556002820160009055600382016000905560048201600090556005820160006101000a81549073ffffffffffffffffffffffffffffffffffffffff0219169055600682016000905560078201600090556008820160006101000a81549060ff02191690555050600193505050505b61341d6135a8565b919050565b600a6020528060005260406000206000915054906101000a900460ff1681565b7f000000000000000000000000000000000000000000000000000000000000000073ffffffffffffffffffffffffffffffffffffffff163373ffffffffffffffffffffffffffffffffffffffff16146134d0576040517f08c379a00000000000000000000000000000000000000000000000000000000081526004016134c790613f8c565b60405180910390fd5b8060018190555050565b600063f23a6e6160e01b905095945050505050565b60007f01ffc9a7000000000000000000000000000000000000000000000000000000007bffffffffffffffffffffffffffffffffffffffffffffffffffffffff1916827bffffffffffffffffffffffffffffffffffffffffffffffffffffffff1916149050919050565b60026000540361359e576040517f08c379a0000000000000000000000000000000000000000000000000000000008152600401613595906150f0565b60405180910390fd5b6002600081905550565b6001600081905550565b60006001546064836135c49190614422565b6135ce91906143b1565b9050919050565b6000604051905090565b600080fd5b600080fd5b60007fffffffff0000000000000000000000000000000000000000000000000000000082169050919050565b61361e816135e9565b811461362957600080fd5b50565b60008135905061363b81613615565b92915050565b600060208284031215613657576136566135df565b5b60006136658482850161362c565b91505092915050565b60008115159050919050565b6136838161366e565b82525050565b600060208201905061369e600083018461367a565b92915050565b6000819050919050565b6136b7816136a4565b81146136c257600080fd5b50565b6000813590506136d4816136ae565b92915050565b6000602082840312156136f0576136ef6135df565b5b60006136fe848285016136c5565b91505092915050565b600073ffffffffffffffffffffffffffffffffffffffff82169050919050565b600061373282613707565b9050919050565b61374281613727565b811461374d57600080fd5b50565b60008135905061375f81613739565b92915050565b60006020828403121561377b5761377a6135df565b5b600061378984828501613750565b91505092915050565b61379b816136a4565b82525050565b60006020820190506137b66000830184613792565b92915050565b6137c581613727565b82525050565b60006040820190506137e06000830185613792565b6137ed60208301846137bc565b9392505050565b6000819050919050565b600061381961381461380f84613707565b6137f4565b613707565b9050919050565b600061382b826137fe565b9050919050565b600061383d82613820565b9050919050565b61384d81613832565b82525050565b600061385e82613707565b9050919050565b61386e81613853565b82525050565b60006101408201905061388a600083018d613792565b613897602083018c613844565b6138a4604083018b613792565b6138b1606083018a613792565b6138be6080830189613792565b6138cb60a0830188613865565b6138d860c0830187613792565b6138e560e083018661367a565b6138f3610100830185613792565b613901610120830184613792565b9b9a5050505050505050505050565b600061391b82613727565b9050919050565b61392b81613910565b811461393657600080fd5b50565b60008135905061394881613922565b92915050565b60008060008060808587031215613968576139676135df565b5b600061397687828801613939565b9450506020613987878288016136c5565b9350506040613998878288016136c5565b92505060606139a9878288016136c5565b91505092959194509250565b60006020820190506139ca6000830184613865565b92915050565b600080600080600060a086880312156139ec576139eb6135df565b5b60006139fa88828901613939565b9550506020613a0b888289016136c5565b9450506040613a1c888289016136c5565b9350506060613a2d888289016136c5565b9250506080613a3e888289016136c5565b9150509295509295909350565b600080600060608486031215613a6457613a636135df565b5b6000613a72868287016136c5565b9350506020613a83868287016136c5565b9250506040613a9486828701613750565b9150509250925092565b600080fd5b6000601f19601f8301169050919050565b7f4e487b7100000000000000000000000000000000000000000000000000000000600052604160045260246000fd5b613aec82613aa3565b810181811067ffffffffffffffff82111715613b0b57613b0a613ab4565b5b80604052505050565b6000613b1e6135d5565b9050613b2a8282613ae3565b919050565b600067ffffffffffffffff821115613b4a57613b49613ab4565b5b602082029050602081019050919050565b600080fd5b6000613b73613b6e84613b2f565b613b14565b90508083825260208201905060208402830185811115613b9657613b95613b5b565b5b835b81811015613bbf5780613bab88826136c5565b845260208401935050602081019050613b98565b5050509392505050565b600082601f830112613bde57613bdd613a9e565b5b8135613bee848260208601613b60565b91505092915050565b600080fd5b600067ffffffffffffffff821115613c1757613c16613ab4565b5b613c2082613aa3565b9050602081019050919050565b82818337600083830152505050565b6000613c4f613c4a84613bfc565b613b14565b905082815260208101848484011115613c6b57613c6a613bf7565b5b613c76848285613c2d565b509392505050565b600082601f830112613c9357613c92613a9e565b5b8135613ca3848260208601613c3c565b91505092915050565b600080600080600060a08688031215613cc857613cc76135df565b5b6000613cd688828901613750565b9550506020613ce788828901613750565b945050604086013567ffffffffffffffff811115613d0857613d076135e4565b5b613d1488828901613bc9565b935050606086013567ffffffffffffffff811115613d3557613d346135e4565b5b613d4188828901613bc9565b925050608086013567ffffffffffffffff811115613d6257613d616135e4565b5b613d6e88828901613c7e565b9150509295509295909350565b613d84816135e9565b82525050565b6000602082019050613d9f6000830184613d7b565b92915050565b60008060408385031215613dbc57613dbb6135df565b5b6000613dca858286016136c5565b9250506020613ddb85828601613939565b9150509250929050565b600061012082019050613dfb600083018c613792565b613e08602083018b613844565b613e15604083018a613792565b613e226060830189613792565b613e2f6080830188613792565b613e3c60a0830187613865565b613e4960c0830186613792565b613e5660e0830185613792565b613e6461010083018461367a565b9a9950505050505050505050565b600080600080600060a08688031215613e8e57613e8d6135df565b5b6000613e9c88828901613750565b9550506020613ead88828901613750565b9450506040613ebe888289016136c5565b9350506060613ecf888289016136c5565b925050608086013567ffffffffffffffff811115613ef057613eef6135e4565b5b613efc88828901613c7e565b9150509295509295909350565b600082825260208201905092915050565b7f4f6e6c79204f776e65722043616e20557365205468697320417574686f72697460008201527f7900000000000000000000000000000000000000000000000000000000000000602082015250565b6000613f76602183613f09565b9150613f8182613f1a565b604082019050919050565b60006020820190508181036000830152613fa581613f69565b9050919050565b7f596f752061726520626c6f636b65640000000000000000000000000000000000600082015250565b6000613fe2600f83613f09565b9150613fed82613fac565b602082019050919050565b6000602082019050818103600083015261401181613fd5565b9050919050565b7f547279696e6720746f2073656e64206c65737320666565000000000000000000600082015250565b600061404e601783613f09565b915061405982614018565b602082019050919050565b6000602082019050818103600083015261407d81614041565b9050919050565b7f796f752061726520616c72656164792072656769737465726564000000000000600082015250565b60006140ba601a83613f09565b91506140c582614084565b602082019050919050565b600060208201905081810360008301526140e9816140ad565b9050919050565b600081905092915050565b50565b600061410b6000836140f0565b9150614116826140fb565b600082019050919050565b600061412c826140fe565b9150819050919050565b7f4572726f7220496e2053656e64696e6720746f2053656c6c6572000000000000600082015250565b600061416c601a83613f09565b915061417782614136565b602082019050919050565b6000602082019050818103600083015261419b8161415f565b9050919050565b7f596f7520417265204e6f74205265676973746572656400000000000000000000600082015250565b60006141d8601683613f09565b91506141e3826141a2565b602082019050919050565b60006020820190508181036000830152614207816141cb565b9050919050565b7f5072696365206d7573742062652067726561746572207468616e207a65726f00600082015250565b6000614244601f83613f09565b915061424f8261420e565b602082019050919050565b6000602082019050818103600083015261427381614237565b9050919050565b7f4e487b7100000000000000000000000000000000000000000000000000000000600052601160045260246000fd5b60006142b4826136a4565b91507fffffffffffffffffffffffffffffffffffffffffffffffffffffffffffffffff82036142e6576142e561427a565b5b600182019050919050565b600082825260208201905092915050565b600061430f6000836142f1565b915061431a826140fb565b600082019050919050565b600060a08201905061433a60008301876137bc565b61434760208301866137bc565b6143546040830185613792565b6143616060830184613792565b818103608083015261437281614302565b905095945050505050565b6000614388826136a4565b9150614393836136a4565b92508282019050808211156143ab576143aa61427a565b5b92915050565b60006143bc826136a4565b91506143c7836136a4565b92508282026143d5816136a4565b915082820484148315176143ec576143eb61427a565b5b5092915050565b7f4e487b7100000000000000000000000000000000000000000000000000000000600052601260045260246000fd5b600061442d826136a4565b9150614438836136a4565b925082614448576144476143f3565b5b828204905092915050565b60006080820190506144686000830187613792565b6144756020830186613792565b6144826040830185613792565b61448f6060830184613792565b95945050505050565b7f437265617465722063616e277420706c61636520206269642000000000000000600082015250565b60006144ce601983613f09565b91506144d982614498565b602082019050919050565b600060208201905081810360008301526144fd816144c1565b9050919050565b7f2053656e646967204c6573732045746820666f72204269642000000000000000600082015250565b600061453a601983613f09565b915061454582614504565b602082019050919050565b600060208201905081810360008301526145698161452d565b9050919050565b7f547279696e6720746f2073656e64206c65737320416d6f756e74000000000000600082015250565b60006145a6601a83613f09565b91506145b182614570565b602082019050919050565b600060208201905081810360008301526145d581614599565b9050919050565b7f4469646e27742073746172746564207965740000000000000000000000000000600082015250565b6000614612601283613f09565b915061461d826145dc565b602082019050919050565b6000602082019050818103600083015261464181614605565b9050919050565b7f41756374696f6e656420456e6465640000000000000000000000000000000000600082015250565b600061467e600f83613f09565b915061468982614648565b602082019050919050565b600060208201905081810360008301526146ad81614671565b9050919050565b7f4661696c656420746f2073656e64206f6c642062696464657200000000000000600082015250565b60006146ea601983613f09565b91506146f5826146b4565b602082019050919050565b60006020820190508181036000830152614719816146dd565b9050919050565b7f796f7520646964206e6f742073656e6420656e6f75676820657468657220746f60008201527f20636f766572206974656d20707269636520616e64206d61726b657420666565602082015250565b600061477c604083613f09565b915061478782614720565b604082019050919050565b600060208201905081810360008301526147ab8161476f565b9050919050565b7f6974656d20646f65736e27742065786973740000000000000000000000000000600082015250565b60006147e8601283613f09565b91506147f3826147b2565b602082019050919050565b60006020820190508181036000830152614817816147db565b9050919050565b7f416c6c2048617665204265656e20536f6c640000000000000000000000000000600082015250565b6000614854601283613f09565b915061485f8261481e565b602082019050919050565b6000602082019050818103600083015261488381614847565b9050919050565b7f4e6f74204176616961626c6520456e6f75676820546f6b656e73000000000000600082015250565b60006148c0601a83613f09565b91506148cb8261488a565b602082019050919050565b600060208201905081810360008301526148ef816148b3565b9050919050565b7f53656c6c65722043616e27742042757920486973204f776e20546f6b656e0000600082015250565b600061492c601e83613f09565b9150614937826148f6565b602082019050919050565b6000602082019050818103600083015261495b8161491f565b9050919050565b600061496d826136a4565b9150614978836136a4565b92508282039050818111156149905761498f61427a565b5b92915050565b7f4572726f7220496e2053656e64696e6720746f204d61726b6574506c61636500600082015250565b60006149cc601f83613f09565b91506149d782614996565b602082019050919050565b600060208201905081810360008301526149fb816149bf565b9050919050565b6000819050919050565b60008160e01b9050919050565b6000614a34614a2f614a2a84614a02565b614a0c565b6135e9565b9050919050565b614a4481614a19565b82525050565b6000602082019050614a5f6000830184614a3b565b92915050565b614a6e8161366e565b8114614a7957600080fd5b50565b600081519050614a8b81614a65565b92915050565b600060208284031215614aa757614aa66135df565b5b6000614ab584828501614a7c565b91505092915050565b6000604082019050614ad36000830185613792565b614ae06020830184613792565b9392505050565b600081519050614af681613739565b92915050565b600081519050614b0b816136ae565b92915050565b60008060408385031215614b2857614b276135df565b5b6000614b3685828601614ae7565b9250506020614b4785828601614afc565b9150509250929050565b7f4572726f7220496e2053656e64696e6720746f20437265617465720000000000600082015250565b6000614b87601b83613f09565b9150614b9282614b51565b602082019050919050565b60006020820190508181036000830152614bb681614b7a565b9050919050565b7f4572726f7220496e2053656e64696e6720746f2053656c6c6572204578636c7560008201527f64696e6720526f79616c74696573200000000000000000000000000000000000602082015250565b6000614c19602f83613f09565b9150614c2482614bbd565b604082019050919050565b60006020820190508181036000830152614c4881614c0c565b9050919050565b6000606082019050614c646000830186613792565b614c716020830185613792565b614c7e6040830184613792565b949350505050565b7f43616e27742063616c6c206265666f726520656e642074696d65000000000000600082015250565b6000614cbc601a83613f09565b9150614cc782614c86565b602082019050919050565b60006020820190508181036000830152614ceb81614caf565b9050919050565b7f4f6e6c792068696768657374206269646465722063616e20636c61696d20686960008201527f732061756374696f6e0000000000000000000000000000000000000000000000602082015250565b6000614d4e602983613f09565b9150614d5982614cf2565b604082019050919050565b60006020820190508181036000830152614d7d81614d41565b9050919050565b7f626964416d6f756e742073656e64696e67206661696c656420746f204d61726b60008201527f6574506c61636500000000000000000000000000000000000000000000000000602082015250565b6000614de0602783613f09565b9150614deb82614d84565b604082019050919050565b60006020820190508181036000830152614e0f81614dd3565b9050919050565b7f73656e64696e67206661696c656420746f2061756374696f6e43726561746572600082015250565b6000614e4c602083613f09565b9150614e5782614e16565b602082019050919050565b60006020820190508181036000830152614e7b81614e3f565b9050919050565b7f4f6e6c79204974656d204f776e65722043616e2043616e63656c20546865204c60008201527f6973740000000000000000000000000000000000000000000000000000000000602082015250565b6000614ede602383613f09565b9150614ee982614e82565b604082019050919050565b60006020820190508181036000830152614f0d81614ed1565b9050919050565b7f446964204e6f742053656e6420456e6f7567682043616e63656c696e6720204660008201527f6565000000000000000000000000000000000000000000000000000000000000602082015250565b6000614f70602283613f09565b9150614f7b82614f14565b604082019050919050565b60006020820190508181036000830152614f9f81614f63565b9050919050565b7f4f6e6c79204f776e65722043616e20556e7374616b6520546865204974656d00600082015250565b6000614fdc601f83613f09565b9150614fe782614fa6565b602082019050919050565b6000602082019050818103600083015261500b81614fcf565b9050919050565b7f2043616e63656c696e675f416d6f756e742073656e64696e67206661696c656460008201527f20746f204d61726b6574506c6163650000000000000000000000000000000000602082015250565b600061506e602f83613f09565b915061507982615012565b604082019050919050565b6000602082019050818103600083015261509d81615061565b9050919050565b7f5265656e7472616e637947756172643a207265656e7472616e742063616c6c00600082015250565b60006150da601f83613f09565b91506150e5826150a4565b602082019050919050565b60006020820190508181036000830152615109816150cd565b905091905056fea2646970667358221220a0b73ff73eec86ee2a4533511061cd1cf68b9aee2e4347927251cb18c9abe2c664736f6c63430008110033",
  "linkReferences": {},
  "deployedLinkReferences": {}
}